{
	"data": {
		"bytecode": {
			"linkReferences": {},
			"object": "608060405234801561000f575f80fd5b506113218061001d5f395ff3fe608060405234801562000010575f80fd5b506004361062000050575f3560e01c80631563700f14620000545780631dda65411462000074578063c5f19c201462000080578063f39f303514620000b6575b5f80fd5b6200007260048036038101906200006c919062000369565b620000ec565b005b6200007e6200019c565b005b6200009e6004803603810190620000989190620003ae565b6200022a565b604051620000ad9190620003ef565b60405180910390f35b620000d46004803603810190620000ce9190620003ae565b620002e4565b604051620000e3919062000490565b60405180910390f35b5f808381548110620001035762000102620004ab565b5b905f5260205f20015f9054906101000a900473ffffffffffffffffffffffffffffffffffffffff1690508073ffffffffffffffffffffffffffffffffffffffff16636057361d836040518263ffffffff1660e01b8152600401620001689190620003ef565b5f604051808303815f87803b15801562000180575f80fd5b505af115801562000193573d5f803e3d5ffd5b50505050505050565b5f604051620001ab906200031f565b604051809103905ff080158015620001c5573d5f803e3d5ffd5b5090505f81908060018154018082558091505060019003905f5260205f20015f9091909190916101000a81548173ffffffffffffffffffffffffffffffffffffffff021916908373ffffffffffffffffffffffffffffffffffffffff16021790555050565b5f805f8381548110620002425762000241620004ab565b5b905f5260205f20015f9054906101000a900473ffffffffffffffffffffffffffffffffffffffff1690508073ffffffffffffffffffffffffffffffffffffffff16632e64cec16040518163ffffffff1660e01b8152600401602060405180830381865afa158015620002b6573d5f803e3d5ffd5b505050506040513d601f19601f82011682018060405250810190620002dc9190620004ee565b915050919050565b5f8181548110620002f3575f80fd5b905f5260205f20015f915054906101000a900473ffffffffffffffffffffffffffffffffffffffff1681565b610dcd806200051f83390190565b5f80fd5b5f819050919050565b620003458162000331565b811462000350575f80fd5b50565b5f8135905062000363816200033a565b92915050565b5f80604083850312156200038257620003816200032d565b5b5f620003918582860162000353565b9250506020620003a48582860162000353565b9150509250929050565b5f60208284031215620003c657620003c56200032d565b5b5f620003d58482850162000353565b91505092915050565b620003e98162000331565b82525050565b5f602082019050620004045f830184620003de565b92915050565b5f73ffffffffffffffffffffffffffffffffffffffff82169050919050565b5f819050919050565b5f620004526200044c62000446846200040a565b62000429565b6200040a565b9050919050565b5f620004658262000432565b9050919050565b5f620004788262000459565b9050919050565b6200048a816200046c565b82525050565b5f602082019050620004a55f8301846200047f565b92915050565b7f4e487b71000000000000000000000000000000000000000000000000000000005f52603260045260245ffd5b5f81519050620004e8816200033a565b92915050565b5f602082840312156200050657620005056200032d565b5b5f6200051584828501620004d8565b9150509291505056fe60806040526040518060400160405280600781526020016040518060400160405280600381526020017f506174000000000000000000000000000000000000000000000000000000000081525081525060035f820151815f01556020820151816001019081620000709190620002ea565b5050503480156200007f575f80fd5b50620003ce565b5f81519050919050565b7f4e487b71000000000000000000000000000000000000000000000000000000005f52604160045260245ffd5b7f4e487b71000000000000000000000000000000000000000000000000000000005f52602260045260245ffd5b5f60028204905060018216806200010257607f821691505b602082108103620001185762000117620000bd565b5b50919050565b5f819050815f5260205f209050919050565b5f6020601f8301049050919050565b5f82821b905092915050565b5f600883026200017c7fffffffffffffffffffffffffffffffffffffffffffffffffffffffffffffffff826200013f565b6200018886836200013f565b95508019841693508086168417925050509392505050565b5f819050919050565b5f819050919050565b5f620001d2620001cc620001c684620001a0565b620001a9565b620001a0565b9050919050565b5f819050919050565b620001ed83620001b2565b62000205620001fc82620001d9565b8484546200014b565b825550505050565b5f90565b6200021b6200020d565b62000228818484620001e2565b505050565b5b818110156200024f57620002435f8262000211565b6001810190506200022e565b5050565b601f8211156200029e5762000268816200011e565b620002738462000130565b8101602085101562000283578190505b6200029b620002928562000130565b8301826200022d565b50505b505050565b5f82821c905092915050565b5f620002c05f1984600802620002a3565b1980831691505092915050565b5f620002da8383620002af565b9150826002028217905092915050565b620002f58262000086565b67ffffffffffffffff81111562000311576200031062000090565b5b6200031d8254620000ea565b6200032a82828562000253565b5f60209050601f83116001811462000360575f84156200034b578287015190505b620003578582620002cd565b865550620003c6565b601f19841662000370866200011e565b5f5b82811015620003995784890151825560018201915060208501945060208101905062000372565b86831015620003b95784890151620003b5601f891682620002af565b8355505b6001600288020188555050505b505050505050565b6109f180620003dc5f395ff3fe608060405234801561000f575f80fd5b506004361061007b575f3560e01c80636057361d116100595780636057361d146100ec5780636f760f4114610108578063b2ac62ef14610124578063b4a24f50146101545761007b565b80632d7d71541461007f5780632e64cec11461009d5780632ebce631146100bb575b5f80fd5b610087610173565b604051610094919061039e565b60405180910390f35b6100a5610178565b6040516100b2919061039e565b60405180910390f35b6100d560048036038101906100d091906103f2565b610180565b6040516100e39291906104a7565b60405180910390f35b610106600480360381019061010191906103f2565b610235565b005b610122600480360381019061011d9190610601565b61023e565b005b61013e6004803603810190610139919061065b565b6102c2565b60405161014b919061039e565b60405180910390f35b61015c6102ef565b60405161016a9291906104a7565b60405180910390f35b5f5481565b5f8054905090565b6002818154811061018f575f80fd5b905f5260205f2090600202015f91509050805f0154908060010180546101b4906106cf565b80601f01602080910402602001604051908101604052809291908181526020018280546101e0906106cf565b801561022b5780601f106102025761010080835404028352916020019161022b565b820191905f5260205f20905b81548152906001019060200180831161020e57829003601f168201915b5050505050905082565b805f8190555050565b6002604051806040016040528083815260200184815250908060018154018082558091505060019003905f5260205f2090600202015f909190919091505f820151815f01556020820151816001019081610298919061089c565b505050806005836040516102ac91906109a5565b9081526020016040518091039020819055505050565b6005818051602081018201805184825260208301602085012081835280955050505050505f915090505481565b6003805f015490806001018054610305906106cf565b80601f0160208091040260200160405190810160405280929190818152602001828054610331906106cf565b801561037c5780601f106103535761010080835404028352916020019161037c565b820191905f5260205f20905b81548152906001019060200180831161035f57829003601f168201915b5050505050905082565b5f819050919050565b61039881610386565b82525050565b5f6020820190506103b15f83018461038f565b92915050565b5f604051905090565b5f80fd5b5f80fd5b6103d181610386565b81146103db575f80fd5b50565b5f813590506103ec816103c8565b92915050565b5f60208284031215610407576104066103c0565b5b5f610414848285016103de565b91505092915050565b5f81519050919050565b5f82825260208201905092915050565b5f5b83811015610454578082015181840152602081019050610439565b5f8484015250505050565b5f601f19601f8301169050919050565b5f6104798261041d565b6104838185610427565b9350610493818560208601610437565b61049c8161045f565b840191505092915050565b5f6040820190506104ba5f83018561038f565b81810360208301526104cc818461046f565b90509392505050565b5f80fd5b5f80fd5b7f4e487b71000000000000000000000000000000000000000000000000000000005f52604160045260245ffd5b6105138261045f565b810181811067ffffffffffffffff82111715610532576105316104dd565b5b80604052505050565b5f6105446103b7565b9050610550828261050a565b919050565b5f67ffffffffffffffff82111561056f5761056e6104dd565b5b6105788261045f565b9050602081019050919050565b828183375f83830152505050565b5f6105a56105a084610555565b61053b565b9050828152602081018484840111156105c1576105c06104d9565b5b6105cc848285610585565b509392505050565b5f82601f8301126105e8576105e76104d5565b5b81356105f8848260208601610593565b91505092915050565b5f8060408385031215610617576106166103c0565b5b5f83013567ffffffffffffffff811115610634576106336103c4565b5b610640858286016105d4565b9250506020610651858286016103de565b9150509250929050565b5f602082840312156106705761066f6103c0565b5b5f82013567ffffffffffffffff81111561068d5761068c6103c4565b5b610699848285016105d4565b91505092915050565b7f4e487b71000000000000000000000000000000000000000000000000000000005f52602260045260245ffd5b5f60028204905060018216806106e657607f821691505b6020821081036106f9576106f86106a2565b5b50919050565b5f819050815f5260205f209050919050565b5f6020601f8301049050919050565b5f82821b905092915050565b5f6008830261075b7fffffffffffffffffffffffffffffffffffffffffffffffffffffffffffffffff82610720565b6107658683610720565b95508019841693508086168417925050509392505050565b5f819050919050565b5f6107a061079b61079684610386565b61077d565b610386565b9050919050565b5f819050919050565b6107b983610786565b6107cd6107c5826107a7565b84845461072c565b825550505050565b5f90565b6107e16107d5565b6107ec8184846107b0565b505050565b5b8181101561080f576108045f826107d9565b6001810190506107f2565b5050565b601f82111561085457610825816106ff565b61082e84610711565b8101602085101561083d578190505b61085161084985610711565b8301826107f1565b50505b505050565b5f82821c905092915050565b5f6108745f1984600802610859565b1980831691505092915050565b5f61088c8383610865565b9150826002028217905092915050565b6108a58261041d565b67ffffffffffffffff8111156108be576108bd6104dd565b5b6108c882546106cf565b6108d3828285610813565b5f60209050601f831160018114610904575f84156108f2578287015190505b6108fc8582610881565b865550610963565b601f198416610912866106ff565b5f5b8281101561093957848901518255600182019150602085019450602081019050610914565b868310156109565784890151610952601f891682610865565b8355505b6001600288020188555050505b505050505050565b5f81905092915050565b5f61097f8261041d565b610989818561096b565b9350610999818560208601610437565b80840191505092915050565b5f6109b08284610975565b91508190509291505056fea2646970667358221220a8b2b3b9b22f6ce8a552c8a982fc7f6c48381f8d9b04e4be04edf2214fce0d8064736f6c63430008180033a2646970667358221220a4013a4a2aa100b45b06b331e39450bef86c55726ef705e9bc4dec7de23aa57864736f6c63430008180033",
			"opcodes": "PUSH1 0x80 PUSH1 0x40 MSTORE CALLVALUE DUP1 ISZERO PUSH2 0xF JUMPI PUSH0 DUP1 REVERT JUMPDEST POP PUSH2 0x1321 DUP1 PUSH2 0x1D PUSH0 CODECOPY PUSH0 RETURN INVALID PUSH1 0x80 PUSH1 0x40 MSTORE CALLVALUE DUP1 ISZERO PUSH3 0x10 JUMPI PUSH0 DUP1 REVERT JUMPDEST POP PUSH1 0x4 CALLDATASIZE LT PUSH3 0x50 JUMPI PUSH0 CALLDATALOAD PUSH1 0xE0 SHR DUP1 PUSH4 0x1563700F EQ PUSH3 0x54 JUMPI DUP1 PUSH4 0x1DDA6541 EQ PUSH3 0x74 JUMPI DUP1 PUSH4 0xC5F19C20 EQ PUSH3 0x80 JUMPI DUP1 PUSH4 0xF39F3035 EQ PUSH3 0xB6 JUMPI JUMPDEST PUSH0 DUP1 REVERT JUMPDEST PUSH3 0x72 PUSH1 0x4 DUP1 CALLDATASIZE SUB DUP2 ADD SWAP1 PUSH3 0x6C SWAP2 SWAP1 PUSH3 0x369 JUMP JUMPDEST PUSH3 0xEC JUMP JUMPDEST STOP JUMPDEST PUSH3 0x7E PUSH3 0x19C JUMP JUMPDEST STOP JUMPDEST PUSH3 0x9E PUSH1 0x4 DUP1 CALLDATASIZE SUB DUP2 ADD SWAP1 PUSH3 0x98 SWAP2 SWAP1 PUSH3 0x3AE JUMP JUMPDEST PUSH3 0x22A JUMP JUMPDEST PUSH1 0x40 MLOAD PUSH3 0xAD SWAP2 SWAP1 PUSH3 0x3EF JUMP JUMPDEST PUSH1 0x40 MLOAD DUP1 SWAP2 SUB SWAP1 RETURN JUMPDEST PUSH3 0xD4 PUSH1 0x4 DUP1 CALLDATASIZE SUB DUP2 ADD SWAP1 PUSH3 0xCE SWAP2 SWAP1 PUSH3 0x3AE JUMP JUMPDEST PUSH3 0x2E4 JUMP JUMPDEST PUSH1 0x40 MLOAD PUSH3 0xE3 SWAP2 SWAP1 PUSH3 0x490 JUMP JUMPDEST PUSH1 0x40 MLOAD DUP1 SWAP2 SUB SWAP1 RETURN JUMPDEST PUSH0 DUP1 DUP4 DUP2 SLOAD DUP2 LT PUSH3 0x103 JUMPI PUSH3 0x102 PUSH3 0x4AB JUMP JUMPDEST JUMPDEST SWAP1 PUSH0 MSTORE PUSH1 0x20 PUSH0 KECCAK256 ADD PUSH0 SWAP1 SLOAD SWAP1 PUSH2 0x100 EXP SWAP1 DIV PUSH20 0xFFFFFFFFFFFFFFFFFFFFFFFFFFFFFFFFFFFFFFFF AND SWAP1 POP DUP1 PUSH20 0xFFFFFFFFFFFFFFFFFFFFFFFFFFFFFFFFFFFFFFFF AND PUSH4 0x6057361D DUP4 PUSH1 0x40 MLOAD DUP3 PUSH4 0xFFFFFFFF AND PUSH1 0xE0 SHL DUP2 MSTORE PUSH1 0x4 ADD PUSH3 0x168 SWAP2 SWAP1 PUSH3 0x3EF JUMP JUMPDEST PUSH0 PUSH1 0x40 MLOAD DUP1 DUP4 SUB DUP2 PUSH0 DUP8 DUP1 EXTCODESIZE ISZERO DUP1 ISZERO PUSH3 0x180 JUMPI PUSH0 DUP1 REVERT JUMPDEST POP GAS CALL ISZERO DUP1 ISZERO PUSH3 0x193 JUMPI RETURNDATASIZE PUSH0 DUP1 RETURNDATACOPY RETURNDATASIZE PUSH0 REVERT JUMPDEST POP POP POP POP POP POP POP JUMP JUMPDEST PUSH0 PUSH1 0x40 MLOAD PUSH3 0x1AB SWAP1 PUSH3 0x31F JUMP JUMPDEST PUSH1 0x40 MLOAD DUP1 SWAP2 SUB SWAP1 PUSH0 CREATE DUP1 ISZERO DUP1 ISZERO PUSH3 0x1C5 JUMPI RETURNDATASIZE PUSH0 DUP1 RETURNDATACOPY RETURNDATASIZE PUSH0 REVERT JUMPDEST POP SWAP1 POP PUSH0 DUP2 SWAP1 DUP1 PUSH1 0x1 DUP2 SLOAD ADD DUP1 DUP3 SSTORE DUP1 SWAP2 POP POP PUSH1 0x1 SWAP1 SUB SWAP1 PUSH0 MSTORE PUSH1 0x20 PUSH0 KECCAK256 ADD PUSH0 SWAP1 SWAP2 SWAP1 SWAP2 SWAP1 SWAP2 PUSH2 0x100 EXP DUP2 SLOAD DUP2 PUSH20 0xFFFFFFFFFFFFFFFFFFFFFFFFFFFFFFFFFFFFFFFF MUL NOT AND SWAP1 DUP4 PUSH20 0xFFFFFFFFFFFFFFFFFFFFFFFFFFFFFFFFFFFFFFFF AND MUL OR SWAP1 SSTORE POP POP JUMP JUMPDEST PUSH0 DUP1 PUSH0 DUP4 DUP2 SLOAD DUP2 LT PUSH3 0x242 JUMPI PUSH3 0x241 PUSH3 0x4AB JUMP JUMPDEST JUMPDEST SWAP1 PUSH0 MSTORE PUSH1 0x20 PUSH0 KECCAK256 ADD PUSH0 SWAP1 SLOAD SWAP1 PUSH2 0x100 EXP SWAP1 DIV PUSH20 0xFFFFFFFFFFFFFFFFFFFFFFFFFFFFFFFFFFFFFFFF AND SWAP1 POP DUP1 PUSH20 0xFFFFFFFFFFFFFFFFFFFFFFFFFFFFFFFFFFFFFFFF AND PUSH4 0x2E64CEC1 PUSH1 0x40 MLOAD DUP2 PUSH4 0xFFFFFFFF AND PUSH1 0xE0 SHL DUP2 MSTORE PUSH1 0x4 ADD PUSH1 0x20 PUSH1 0x40 MLOAD DUP1 DUP4 SUB DUP2 DUP7 GAS STATICCALL ISZERO DUP1 ISZERO PUSH3 0x2B6 JUMPI RETURNDATASIZE PUSH0 DUP1 RETURNDATACOPY RETURNDATASIZE PUSH0 REVERT JUMPDEST POP POP POP POP PUSH1 0x40 MLOAD RETURNDATASIZE PUSH1 0x1F NOT PUSH1 0x1F DUP3 ADD AND DUP3 ADD DUP1 PUSH1 0x40 MSTORE POP DUP2 ADD SWAP1 PUSH3 0x2DC SWAP2 SWAP1 PUSH3 0x4EE JUMP JUMPDEST SWAP2 POP POP SWAP2 SWAP1 POP JUMP JUMPDEST PUSH0 DUP2 DUP2 SLOAD DUP2 LT PUSH3 0x2F3 JUMPI PUSH0 DUP1 REVERT JUMPDEST SWAP1 PUSH0 MSTORE PUSH1 0x20 PUSH0 KECCAK256 ADD PUSH0 SWAP2 POP SLOAD SWAP1 PUSH2 0x100 EXP SWAP1 DIV PUSH20 0xFFFFFFFFFFFFFFFFFFFFFFFFFFFFFFFFFFFFFFFF AND DUP2 JUMP JUMPDEST PUSH2 0xDCD DUP1 PUSH3 0x51F DUP4 CODECOPY ADD SWAP1 JUMP JUMPDEST PUSH0 DUP1 REVERT JUMPDEST PUSH0 DUP2 SWAP1 POP SWAP2 SWAP1 POP JUMP JUMPDEST PUSH3 0x345 DUP2 PUSH3 0x331 JUMP JUMPDEST DUP2 EQ PUSH3 0x350 JUMPI PUSH0 DUP1 REVERT JUMPDEST POP JUMP JUMPDEST PUSH0 DUP2 CALLDATALOAD SWAP1 POP PUSH3 0x363 DUP2 PUSH3 0x33A JUMP JUMPDEST SWAP3 SWAP2 POP POP JUMP JUMPDEST PUSH0 DUP1 PUSH1 0x40 DUP4 DUP6 SUB SLT ISZERO PUSH3 0x382 JUMPI PUSH3 0x381 PUSH3 0x32D JUMP JUMPDEST JUMPDEST PUSH0 PUSH3 0x391 DUP6 DUP3 DUP7 ADD PUSH3 0x353 JUMP JUMPDEST SWAP3 POP POP PUSH1 0x20 PUSH3 0x3A4 DUP6 DUP3 DUP7 ADD PUSH3 0x353 JUMP JUMPDEST SWAP2 POP POP SWAP3 POP SWAP3 SWAP1 POP JUMP JUMPDEST PUSH0 PUSH1 0x20 DUP3 DUP5 SUB SLT ISZERO PUSH3 0x3C6 JUMPI PUSH3 0x3C5 PUSH3 0x32D JUMP JUMPDEST JUMPDEST PUSH0 PUSH3 0x3D5 DUP5 DUP3 DUP6 ADD PUSH3 0x353 JUMP JUMPDEST SWAP2 POP POP SWAP3 SWAP2 POP POP JUMP JUMPDEST PUSH3 0x3E9 DUP2 PUSH3 0x331 JUMP JUMPDEST DUP3 MSTORE POP POP JUMP JUMPDEST PUSH0 PUSH1 0x20 DUP3 ADD SWAP1 POP PUSH3 0x404 PUSH0 DUP4 ADD DUP5 PUSH3 0x3DE JUMP JUMPDEST SWAP3 SWAP2 POP POP JUMP JUMPDEST PUSH0 PUSH20 0xFFFFFFFFFFFFFFFFFFFFFFFFFFFFFFFFFFFFFFFF DUP3 AND SWAP1 POP SWAP2 SWAP1 POP JUMP JUMPDEST PUSH0 DUP2 SWAP1 POP SWAP2 SWAP1 POP JUMP JUMPDEST PUSH0 PUSH3 0x452 PUSH3 0x44C PUSH3 0x446 DUP5 PUSH3 0x40A JUMP JUMPDEST PUSH3 0x429 JUMP JUMPDEST PUSH3 0x40A JUMP JUMPDEST SWAP1 POP SWAP2 SWAP1 POP JUMP JUMPDEST PUSH0 PUSH3 0x465 DUP3 PUSH3 0x432 JUMP JUMPDEST SWAP1 POP SWAP2 SWAP1 POP JUMP JUMPDEST PUSH0 PUSH3 0x478 DUP3 PUSH3 0x459 JUMP JUMPDEST SWAP1 POP SWAP2 SWAP1 POP JUMP JUMPDEST PUSH3 0x48A DUP2 PUSH3 0x46C JUMP JUMPDEST DUP3 MSTORE POP POP JUMP JUMPDEST PUSH0 PUSH1 0x20 DUP3 ADD SWAP1 POP PUSH3 0x4A5 PUSH0 DUP4 ADD DUP5 PUSH3 0x47F JUMP JUMPDEST SWAP3 SWAP2 POP POP JUMP JUMPDEST PUSH32 0x4E487B7100000000000000000000000000000000000000000000000000000000 PUSH0 MSTORE PUSH1 0x32 PUSH1 0x4 MSTORE PUSH1 0x24 PUSH0 REVERT JUMPDEST PUSH0 DUP2 MLOAD SWAP1 POP PUSH3 0x4E8 DUP2 PUSH3 0x33A JUMP JUMPDEST SWAP3 SWAP2 POP POP JUMP JUMPDEST PUSH0 PUSH1 0x20 DUP3 DUP5 SUB SLT ISZERO PUSH3 0x506 JUMPI PUSH3 0x505 PUSH3 0x32D JUMP JUMPDEST JUMPDEST PUSH0 PUSH3 0x515 DUP5 DUP3 DUP6 ADD PUSH3 0x4D8 JUMP JUMPDEST SWAP2 POP POP SWAP3 SWAP2 POP POP JUMP INVALID PUSH1 0x80 PUSH1 0x40 MSTORE PUSH1 0x40 MLOAD DUP1 PUSH1 0x40 ADD PUSH1 0x40 MSTORE DUP1 PUSH1 0x7 DUP2 MSTORE PUSH1 0x20 ADD PUSH1 0x40 MLOAD DUP1 PUSH1 0x40 ADD PUSH1 0x40 MSTORE DUP1 PUSH1 0x3 DUP2 MSTORE PUSH1 0x20 ADD PUSH32 0x5061740000000000000000000000000000000000000000000000000000000000 DUP2 MSTORE POP DUP2 MSTORE POP PUSH1 0x3 PUSH0 DUP3 ADD MLOAD DUP2 PUSH0 ADD SSTORE PUSH1 0x20 DUP3 ADD MLOAD DUP2 PUSH1 0x1 ADD SWAP1 DUP2 PUSH3 0x70 SWAP2 SWAP1 PUSH3 0x2EA JUMP JUMPDEST POP POP POP CALLVALUE DUP1 ISZERO PUSH3 0x7F JUMPI PUSH0 DUP1 REVERT JUMPDEST POP PUSH3 0x3CE JUMP JUMPDEST PUSH0 DUP2 MLOAD SWAP1 POP SWAP2 SWAP1 POP JUMP JUMPDEST PUSH32 0x4E487B7100000000000000000000000000000000000000000000000000000000 PUSH0 MSTORE PUSH1 0x41 PUSH1 0x4 MSTORE PUSH1 0x24 PUSH0 REVERT JUMPDEST PUSH32 0x4E487B7100000000000000000000000000000000000000000000000000000000 PUSH0 MSTORE PUSH1 0x22 PUSH1 0x4 MSTORE PUSH1 0x24 PUSH0 REVERT JUMPDEST PUSH0 PUSH1 0x2 DUP3 DIV SWAP1 POP PUSH1 0x1 DUP3 AND DUP1 PUSH3 0x102 JUMPI PUSH1 0x7F DUP3 AND SWAP2 POP JUMPDEST PUSH1 0x20 DUP3 LT DUP2 SUB PUSH3 0x118 JUMPI PUSH3 0x117 PUSH3 0xBD JUMP JUMPDEST JUMPDEST POP SWAP2 SWAP1 POP JUMP JUMPDEST PUSH0 DUP2 SWAP1 POP DUP2 PUSH0 MSTORE PUSH1 0x20 PUSH0 KECCAK256 SWAP1 POP SWAP2 SWAP1 POP JUMP JUMPDEST PUSH0 PUSH1 0x20 PUSH1 0x1F DUP4 ADD DIV SWAP1 POP SWAP2 SWAP1 POP JUMP JUMPDEST PUSH0 DUP3 DUP3 SHL SWAP1 POP SWAP3 SWAP2 POP POP JUMP JUMPDEST PUSH0 PUSH1 0x8 DUP4 MUL PUSH3 0x17C PUSH32 0xFFFFFFFFFFFFFFFFFFFFFFFFFFFFFFFFFFFFFFFFFFFFFFFFFFFFFFFFFFFFFFFF DUP3 PUSH3 0x13F JUMP JUMPDEST PUSH3 0x188 DUP7 DUP4 PUSH3 0x13F JUMP JUMPDEST SWAP6 POP DUP1 NOT DUP5 AND SWAP4 POP DUP1 DUP7 AND DUP5 OR SWAP3 POP POP POP SWAP4 SWAP3 POP POP POP JUMP JUMPDEST PUSH0 DUP2 SWAP1 POP SWAP2 SWAP1 POP JUMP JUMPDEST PUSH0 DUP2 SWAP1 POP SWAP2 SWAP1 POP JUMP JUMPDEST PUSH0 PUSH3 0x1D2 PUSH3 0x1CC PUSH3 0x1C6 DUP5 PUSH3 0x1A0 JUMP JUMPDEST PUSH3 0x1A9 JUMP JUMPDEST PUSH3 0x1A0 JUMP JUMPDEST SWAP1 POP SWAP2 SWAP1 POP JUMP JUMPDEST PUSH0 DUP2 SWAP1 POP SWAP2 SWAP1 POP JUMP JUMPDEST PUSH3 0x1ED DUP4 PUSH3 0x1B2 JUMP JUMPDEST PUSH3 0x205 PUSH3 0x1FC DUP3 PUSH3 0x1D9 JUMP JUMPDEST DUP5 DUP5 SLOAD PUSH3 0x14B JUMP JUMPDEST DUP3 SSTORE POP POP POP POP JUMP JUMPDEST PUSH0 SWAP1 JUMP JUMPDEST PUSH3 0x21B PUSH3 0x20D JUMP JUMPDEST PUSH3 0x228 DUP2 DUP5 DUP5 PUSH3 0x1E2 JUMP JUMPDEST POP POP POP JUMP JUMPDEST JUMPDEST DUP2 DUP2 LT ISZERO PUSH3 0x24F JUMPI PUSH3 0x243 PUSH0 DUP3 PUSH3 0x211 JUMP JUMPDEST PUSH1 0x1 DUP2 ADD SWAP1 POP PUSH3 0x22E JUMP JUMPDEST POP POP JUMP JUMPDEST PUSH1 0x1F DUP3 GT ISZERO PUSH3 0x29E JUMPI PUSH3 0x268 DUP2 PUSH3 0x11E JUMP JUMPDEST PUSH3 0x273 DUP5 PUSH3 0x130 JUMP JUMPDEST DUP2 ADD PUSH1 0x20 DUP6 LT ISZERO PUSH3 0x283 JUMPI DUP2 SWAP1 POP JUMPDEST PUSH3 0x29B PUSH3 0x292 DUP6 PUSH3 0x130 JUMP JUMPDEST DUP4 ADD DUP3 PUSH3 0x22D JUMP JUMPDEST POP POP JUMPDEST POP POP POP JUMP JUMPDEST PUSH0 DUP3 DUP3 SHR SWAP1 POP SWAP3 SWAP2 POP POP JUMP JUMPDEST PUSH0 PUSH3 0x2C0 PUSH0 NOT DUP5 PUSH1 0x8 MUL PUSH3 0x2A3 JUMP JUMPDEST NOT DUP1 DUP4 AND SWAP2 POP POP SWAP3 SWAP2 POP POP JUMP JUMPDEST PUSH0 PUSH3 0x2DA DUP4 DUP4 PUSH3 0x2AF JUMP JUMPDEST SWAP2 POP DUP3 PUSH1 0x2 MUL DUP3 OR SWAP1 POP SWAP3 SWAP2 POP POP JUMP JUMPDEST PUSH3 0x2F5 DUP3 PUSH3 0x86 JUMP JUMPDEST PUSH8 0xFFFFFFFFFFFFFFFF DUP2 GT ISZERO PUSH3 0x311 JUMPI PUSH3 0x310 PUSH3 0x90 JUMP JUMPDEST JUMPDEST PUSH3 0x31D DUP3 SLOAD PUSH3 0xEA JUMP JUMPDEST PUSH3 0x32A DUP3 DUP3 DUP6 PUSH3 0x253 JUMP JUMPDEST PUSH0 PUSH1 0x20 SWAP1 POP PUSH1 0x1F DUP4 GT PUSH1 0x1 DUP2 EQ PUSH3 0x360 JUMPI PUSH0 DUP5 ISZERO PUSH3 0x34B JUMPI DUP3 DUP8 ADD MLOAD SWAP1 POP JUMPDEST PUSH3 0x357 DUP6 DUP3 PUSH3 0x2CD JUMP JUMPDEST DUP7 SSTORE POP PUSH3 0x3C6 JUMP JUMPDEST PUSH1 0x1F NOT DUP5 AND PUSH3 0x370 DUP7 PUSH3 0x11E JUMP JUMPDEST PUSH0 JUMPDEST DUP3 DUP2 LT ISZERO PUSH3 0x399 JUMPI DUP5 DUP10 ADD MLOAD DUP3 SSTORE PUSH1 0x1 DUP3 ADD SWAP2 POP PUSH1 0x20 DUP6 ADD SWAP5 POP PUSH1 0x20 DUP2 ADD SWAP1 POP PUSH3 0x372 JUMP JUMPDEST DUP7 DUP4 LT ISZERO PUSH3 0x3B9 JUMPI DUP5 DUP10 ADD MLOAD PUSH3 0x3B5 PUSH1 0x1F DUP10 AND DUP3 PUSH3 0x2AF JUMP JUMPDEST DUP4 SSTORE POP JUMPDEST PUSH1 0x1 PUSH1 0x2 DUP9 MUL ADD DUP9 SSTORE POP POP POP JUMPDEST POP POP POP POP POP POP JUMP JUMPDEST PUSH2 0x9F1 DUP1 PUSH3 0x3DC PUSH0 CODECOPY PUSH0 RETURN INVALID PUSH1 0x80 PUSH1 0x40 MSTORE CALLVALUE DUP1 ISZERO PUSH2 0xF JUMPI PUSH0 DUP1 REVERT JUMPDEST POP PUSH1 0x4 CALLDATASIZE LT PUSH2 0x7B JUMPI PUSH0 CALLDATALOAD PUSH1 0xE0 SHR DUP1 PUSH4 0x6057361D GT PUSH2 0x59 JUMPI DUP1 PUSH4 0x6057361D EQ PUSH2 0xEC JUMPI DUP1 PUSH4 0x6F760F41 EQ PUSH2 0x108 JUMPI DUP1 PUSH4 0xB2AC62EF EQ PUSH2 0x124 JUMPI DUP1 PUSH4 0xB4A24F50 EQ PUSH2 0x154 JUMPI PUSH2 0x7B JUMP JUMPDEST DUP1 PUSH4 0x2D7D7154 EQ PUSH2 0x7F JUMPI DUP1 PUSH4 0x2E64CEC1 EQ PUSH2 0x9D JUMPI DUP1 PUSH4 0x2EBCE631 EQ PUSH2 0xBB JUMPI JUMPDEST PUSH0 DUP1 REVERT JUMPDEST PUSH2 0x87 PUSH2 0x173 JUMP JUMPDEST PUSH1 0x40 MLOAD PUSH2 0x94 SWAP2 SWAP1 PUSH2 0x39E JUMP JUMPDEST PUSH1 0x40 MLOAD DUP1 SWAP2 SUB SWAP1 RETURN JUMPDEST PUSH2 0xA5 PUSH2 0x178 JUMP JUMPDEST PUSH1 0x40 MLOAD PUSH2 0xB2 SWAP2 SWAP1 PUSH2 0x39E JUMP JUMPDEST PUSH1 0x40 MLOAD DUP1 SWAP2 SUB SWAP1 RETURN JUMPDEST PUSH2 0xD5 PUSH1 0x4 DUP1 CALLDATASIZE SUB DUP2 ADD SWAP1 PUSH2 0xD0 SWAP2 SWAP1 PUSH2 0x3F2 JUMP JUMPDEST PUSH2 0x180 JUMP JUMPDEST PUSH1 0x40 MLOAD PUSH2 0xE3 SWAP3 SWAP2 SWAP1 PUSH2 0x4A7 JUMP JUMPDEST PUSH1 0x40 MLOAD DUP1 SWAP2 SUB SWAP1 RETURN JUMPDEST PUSH2 0x106 PUSH1 0x4 DUP1 CALLDATASIZE SUB DUP2 ADD SWAP1 PUSH2 0x101 SWAP2 SWAP1 PUSH2 0x3F2 JUMP JUMPDEST PUSH2 0x235 JUMP JUMPDEST STOP JUMPDEST PUSH2 0x122 PUSH1 0x4 DUP1 CALLDATASIZE SUB DUP2 ADD SWAP1 PUSH2 0x11D SWAP2 SWAP1 PUSH2 0x601 JUMP JUMPDEST PUSH2 0x23E JUMP JUMPDEST STOP JUMPDEST PUSH2 0x13E PUSH1 0x4 DUP1 CALLDATASIZE SUB DUP2 ADD SWAP1 PUSH2 0x139 SWAP2 SWAP1 PUSH2 0x65B JUMP JUMPDEST PUSH2 0x2C2 JUMP JUMPDEST PUSH1 0x40 MLOAD PUSH2 0x14B SWAP2 SWAP1 PUSH2 0x39E JUMP JUMPDEST PUSH1 0x40 MLOAD DUP1 SWAP2 SUB SWAP1 RETURN JUMPDEST PUSH2 0x15C PUSH2 0x2EF JUMP JUMPDEST PUSH1 0x40 MLOAD PUSH2 0x16A SWAP3 SWAP2 SWAP1 PUSH2 0x4A7 JUMP JUMPDEST PUSH1 0x40 MLOAD DUP1 SWAP2 SUB SWAP1 RETURN JUMPDEST PUSH0 SLOAD DUP2 JUMP JUMPDEST PUSH0 DUP1 SLOAD SWAP1 POP SWAP1 JUMP JUMPDEST PUSH1 0x2 DUP2 DUP2 SLOAD DUP2 LT PUSH2 0x18F JUMPI PUSH0 DUP1 REVERT JUMPDEST SWAP1 PUSH0 MSTORE PUSH1 0x20 PUSH0 KECCAK256 SWAP1 PUSH1 0x2 MUL ADD PUSH0 SWAP2 POP SWAP1 POP DUP1 PUSH0 ADD SLOAD SWAP1 DUP1 PUSH1 0x1 ADD DUP1 SLOAD PUSH2 0x1B4 SWAP1 PUSH2 0x6CF JUMP JUMPDEST DUP1 PUSH1 0x1F ADD PUSH1 0x20 DUP1 SWAP2 DIV MUL PUSH1 0x20 ADD PUSH1 0x40 MLOAD SWAP1 DUP2 ADD PUSH1 0x40 MSTORE DUP1 SWAP3 SWAP2 SWAP1 DUP2 DUP2 MSTORE PUSH1 0x20 ADD DUP3 DUP1 SLOAD PUSH2 0x1E0 SWAP1 PUSH2 0x6CF JUMP JUMPDEST DUP1 ISZERO PUSH2 0x22B JUMPI DUP1 PUSH1 0x1F LT PUSH2 0x202 JUMPI PUSH2 0x100 DUP1 DUP4 SLOAD DIV MUL DUP4 MSTORE SWAP2 PUSH1 0x20 ADD SWAP2 PUSH2 0x22B JUMP JUMPDEST DUP3 ADD SWAP2 SWAP1 PUSH0 MSTORE PUSH1 0x20 PUSH0 KECCAK256 SWAP1 JUMPDEST DUP2 SLOAD DUP2 MSTORE SWAP1 PUSH1 0x1 ADD SWAP1 PUSH1 0x20 ADD DUP1 DUP4 GT PUSH2 0x20E JUMPI DUP3 SWAP1 SUB PUSH1 0x1F AND DUP3 ADD SWAP2 JUMPDEST POP POP POP POP POP SWAP1 POP DUP3 JUMP JUMPDEST DUP1 PUSH0 DUP2 SWAP1 SSTORE POP POP JUMP JUMPDEST PUSH1 0x2 PUSH1 0x40 MLOAD DUP1 PUSH1 0x40 ADD PUSH1 0x40 MSTORE DUP1 DUP4 DUP2 MSTORE PUSH1 0x20 ADD DUP5 DUP2 MSTORE POP SWAP1 DUP1 PUSH1 0x1 DUP2 SLOAD ADD DUP1 DUP3 SSTORE DUP1 SWAP2 POP POP PUSH1 0x1 SWAP1 SUB SWAP1 PUSH0 MSTORE PUSH1 0x20 PUSH0 KECCAK256 SWAP1 PUSH1 0x2 MUL ADD PUSH0 SWAP1 SWAP2 SWAP1 SWAP2 SWAP1 SWAP2 POP PUSH0 DUP3 ADD MLOAD DUP2 PUSH0 ADD SSTORE PUSH1 0x20 DUP3 ADD MLOAD DUP2 PUSH1 0x1 ADD SWAP1 DUP2 PUSH2 0x298 SWAP2 SWAP1 PUSH2 0x89C JUMP JUMPDEST POP POP POP DUP1 PUSH1 0x5 DUP4 PUSH1 0x40 MLOAD PUSH2 0x2AC SWAP2 SWAP1 PUSH2 0x9A5 JUMP JUMPDEST SWAP1 DUP2 MSTORE PUSH1 0x20 ADD PUSH1 0x40 MLOAD DUP1 SWAP2 SUB SWAP1 KECCAK256 DUP2 SWAP1 SSTORE POP POP POP JUMP JUMPDEST PUSH1 0x5 DUP2 DUP1 MLOAD PUSH1 0x20 DUP2 ADD DUP3 ADD DUP1 MLOAD DUP5 DUP3 MSTORE PUSH1 0x20 DUP4 ADD PUSH1 0x20 DUP6 ADD KECCAK256 DUP2 DUP4 MSTORE DUP1 SWAP6 POP POP POP POP POP POP PUSH0 SWAP2 POP SWAP1 POP SLOAD DUP2 JUMP JUMPDEST PUSH1 0x3 DUP1 PUSH0 ADD SLOAD SWAP1 DUP1 PUSH1 0x1 ADD DUP1 SLOAD PUSH2 0x305 SWAP1 PUSH2 0x6CF JUMP JUMPDEST DUP1 PUSH1 0x1F ADD PUSH1 0x20 DUP1 SWAP2 DIV MUL PUSH1 0x20 ADD PUSH1 0x40 MLOAD SWAP1 DUP2 ADD PUSH1 0x40 MSTORE DUP1 SWAP3 SWAP2 SWAP1 DUP2 DUP2 MSTORE PUSH1 0x20 ADD DUP3 DUP1 SLOAD PUSH2 0x331 SWAP1 PUSH2 0x6CF JUMP JUMPDEST DUP1 ISZERO PUSH2 0x37C JUMPI DUP1 PUSH1 0x1F LT PUSH2 0x353 JUMPI PUSH2 0x100 DUP1 DUP4 SLOAD DIV MUL DUP4 MSTORE SWAP2 PUSH1 0x20 ADD SWAP2 PUSH2 0x37C JUMP JUMPDEST DUP3 ADD SWAP2 SWAP1 PUSH0 MSTORE PUSH1 0x20 PUSH0 KECCAK256 SWAP1 JUMPDEST DUP2 SLOAD DUP2 MSTORE SWAP1 PUSH1 0x1 ADD SWAP1 PUSH1 0x20 ADD DUP1 DUP4 GT PUSH2 0x35F JUMPI DUP3 SWAP1 SUB PUSH1 0x1F AND DUP3 ADD SWAP2 JUMPDEST POP POP POP POP POP SWAP1 POP DUP3 JUMP JUMPDEST PUSH0 DUP2 SWAP1 POP SWAP2 SWAP1 POP JUMP JUMPDEST PUSH2 0x398 DUP2 PUSH2 0x386 JUMP JUMPDEST DUP3 MSTORE POP POP JUMP JUMPDEST PUSH0 PUSH1 0x20 DUP3 ADD SWAP1 POP PUSH2 0x3B1 PUSH0 DUP4 ADD DUP5 PUSH2 0x38F JUMP JUMPDEST SWAP3 SWAP2 POP POP JUMP JUMPDEST PUSH0 PUSH1 0x40 MLOAD SWAP1 POP SWAP1 JUMP JUMPDEST PUSH0 DUP1 REVERT JUMPDEST PUSH0 DUP1 REVERT JUMPDEST PUSH2 0x3D1 DUP2 PUSH2 0x386 JUMP JUMPDEST DUP2 EQ PUSH2 0x3DB JUMPI PUSH0 DUP1 REVERT JUMPDEST POP JUMP JUMPDEST PUSH0 DUP2 CALLDATALOAD SWAP1 POP PUSH2 0x3EC DUP2 PUSH2 0x3C8 JUMP JUMPDEST SWAP3 SWAP2 POP POP JUMP JUMPDEST PUSH0 PUSH1 0x20 DUP3 DUP5 SUB SLT ISZERO PUSH2 0x407 JUMPI PUSH2 0x406 PUSH2 0x3C0 JUMP JUMPDEST JUMPDEST PUSH0 PUSH2 0x414 DUP5 DUP3 DUP6 ADD PUSH2 0x3DE JUMP JUMPDEST SWAP2 POP POP SWAP3 SWAP2 POP POP JUMP JUMPDEST PUSH0 DUP2 MLOAD SWAP1 POP SWAP2 SWAP1 POP JUMP JUMPDEST PUSH0 DUP3 DUP3 MSTORE PUSH1 0x20 DUP3 ADD SWAP1 POP SWAP3 SWAP2 POP POP JUMP JUMPDEST PUSH0 JUMPDEST DUP4 DUP2 LT ISZERO PUSH2 0x454 JUMPI DUP1 DUP3 ADD MLOAD DUP2 DUP5 ADD MSTORE PUSH1 0x20 DUP2 ADD SWAP1 POP PUSH2 0x439 JUMP JUMPDEST PUSH0 DUP5 DUP5 ADD MSTORE POP POP POP POP JUMP JUMPDEST PUSH0 PUSH1 0x1F NOT PUSH1 0x1F DUP4 ADD AND SWAP1 POP SWAP2 SWAP1 POP JUMP JUMPDEST PUSH0 PUSH2 0x479 DUP3 PUSH2 0x41D JUMP JUMPDEST PUSH2 0x483 DUP2 DUP6 PUSH2 0x427 JUMP JUMPDEST SWAP4 POP PUSH2 0x493 DUP2 DUP6 PUSH1 0x20 DUP7 ADD PUSH2 0x437 JUMP JUMPDEST PUSH2 0x49C DUP2 PUSH2 0x45F JUMP JUMPDEST DUP5 ADD SWAP2 POP POP SWAP3 SWAP2 POP POP JUMP JUMPDEST PUSH0 PUSH1 0x40 DUP3 ADD SWAP1 POP PUSH2 0x4BA PUSH0 DUP4 ADD DUP6 PUSH2 0x38F JUMP JUMPDEST DUP2 DUP2 SUB PUSH1 0x20 DUP4 ADD MSTORE PUSH2 0x4CC DUP2 DUP5 PUSH2 0x46F JUMP JUMPDEST SWAP1 POP SWAP4 SWAP3 POP POP POP JUMP JUMPDEST PUSH0 DUP1 REVERT JUMPDEST PUSH0 DUP1 REVERT JUMPDEST PUSH32 0x4E487B7100000000000000000000000000000000000000000000000000000000 PUSH0 MSTORE PUSH1 0x41 PUSH1 0x4 MSTORE PUSH1 0x24 PUSH0 REVERT JUMPDEST PUSH2 0x513 DUP3 PUSH2 0x45F JUMP JUMPDEST DUP2 ADD DUP2 DUP2 LT PUSH8 0xFFFFFFFFFFFFFFFF DUP3 GT OR ISZERO PUSH2 0x532 JUMPI PUSH2 0x531 PUSH2 0x4DD JUMP JUMPDEST JUMPDEST DUP1 PUSH1 0x40 MSTORE POP POP POP JUMP JUMPDEST PUSH0 PUSH2 0x544 PUSH2 0x3B7 JUMP JUMPDEST SWAP1 POP PUSH2 0x550 DUP3 DUP3 PUSH2 0x50A JUMP JUMPDEST SWAP2 SWAP1 POP JUMP JUMPDEST PUSH0 PUSH8 0xFFFFFFFFFFFFFFFF DUP3 GT ISZERO PUSH2 0x56F JUMPI PUSH2 0x56E PUSH2 0x4DD JUMP JUMPDEST JUMPDEST PUSH2 0x578 DUP3 PUSH2 0x45F JUMP JUMPDEST SWAP1 POP PUSH1 0x20 DUP2 ADD SWAP1 POP SWAP2 SWAP1 POP JUMP JUMPDEST DUP3 DUP2 DUP4 CALLDATACOPY PUSH0 DUP4 DUP4 ADD MSTORE POP POP POP JUMP JUMPDEST PUSH0 PUSH2 0x5A5 PUSH2 0x5A0 DUP5 PUSH2 0x555 JUMP JUMPDEST PUSH2 0x53B JUMP JUMPDEST SWAP1 POP DUP3 DUP2 MSTORE PUSH1 0x20 DUP2 ADD DUP5 DUP5 DUP5 ADD GT ISZERO PUSH2 0x5C1 JUMPI PUSH2 0x5C0 PUSH2 0x4D9 JUMP JUMPDEST JUMPDEST PUSH2 0x5CC DUP5 DUP3 DUP6 PUSH2 0x585 JUMP JUMPDEST POP SWAP4 SWAP3 POP POP POP JUMP JUMPDEST PUSH0 DUP3 PUSH1 0x1F DUP4 ADD SLT PUSH2 0x5E8 JUMPI PUSH2 0x5E7 PUSH2 0x4D5 JUMP JUMPDEST JUMPDEST DUP2 CALLDATALOAD PUSH2 0x5F8 DUP5 DUP3 PUSH1 0x20 DUP7 ADD PUSH2 0x593 JUMP JUMPDEST SWAP2 POP POP SWAP3 SWAP2 POP POP JUMP JUMPDEST PUSH0 DUP1 PUSH1 0x40 DUP4 DUP6 SUB SLT ISZERO PUSH2 0x617 JUMPI PUSH2 0x616 PUSH2 0x3C0 JUMP JUMPDEST JUMPDEST PUSH0 DUP4 ADD CALLDATALOAD PUSH8 0xFFFFFFFFFFFFFFFF DUP2 GT ISZERO PUSH2 0x634 JUMPI PUSH2 0x633 PUSH2 0x3C4 JUMP JUMPDEST JUMPDEST PUSH2 0x640 DUP6 DUP3 DUP7 ADD PUSH2 0x5D4 JUMP JUMPDEST SWAP3 POP POP PUSH1 0x20 PUSH2 0x651 DUP6 DUP3 DUP7 ADD PUSH2 0x3DE JUMP JUMPDEST SWAP2 POP POP SWAP3 POP SWAP3 SWAP1 POP JUMP JUMPDEST PUSH0 PUSH1 0x20 DUP3 DUP5 SUB SLT ISZERO PUSH2 0x670 JUMPI PUSH2 0x66F PUSH2 0x3C0 JUMP JUMPDEST JUMPDEST PUSH0 DUP3 ADD CALLDATALOAD PUSH8 0xFFFFFFFFFFFFFFFF DUP2 GT ISZERO PUSH2 0x68D JUMPI PUSH2 0x68C PUSH2 0x3C4 JUMP JUMPDEST JUMPDEST PUSH2 0x699 DUP5 DUP3 DUP6 ADD PUSH2 0x5D4 JUMP JUMPDEST SWAP2 POP POP SWAP3 SWAP2 POP POP JUMP JUMPDEST PUSH32 0x4E487B7100000000000000000000000000000000000000000000000000000000 PUSH0 MSTORE PUSH1 0x22 PUSH1 0x4 MSTORE PUSH1 0x24 PUSH0 REVERT JUMPDEST PUSH0 PUSH1 0x2 DUP3 DIV SWAP1 POP PUSH1 0x1 DUP3 AND DUP1 PUSH2 0x6E6 JUMPI PUSH1 0x7F DUP3 AND SWAP2 POP JUMPDEST PUSH1 0x20 DUP3 LT DUP2 SUB PUSH2 0x6F9 JUMPI PUSH2 0x6F8 PUSH2 0x6A2 JUMP JUMPDEST JUMPDEST POP SWAP2 SWAP1 POP JUMP JUMPDEST PUSH0 DUP2 SWAP1 POP DUP2 PUSH0 MSTORE PUSH1 0x20 PUSH0 KECCAK256 SWAP1 POP SWAP2 SWAP1 POP JUMP JUMPDEST PUSH0 PUSH1 0x20 PUSH1 0x1F DUP4 ADD DIV SWAP1 POP SWAP2 SWAP1 POP JUMP JUMPDEST PUSH0 DUP3 DUP3 SHL SWAP1 POP SWAP3 SWAP2 POP POP JUMP JUMPDEST PUSH0 PUSH1 0x8 DUP4 MUL PUSH2 0x75B PUSH32 0xFFFFFFFFFFFFFFFFFFFFFFFFFFFFFFFFFFFFFFFFFFFFFFFFFFFFFFFFFFFFFFFF DUP3 PUSH2 0x720 JUMP JUMPDEST PUSH2 0x765 DUP7 DUP4 PUSH2 0x720 JUMP JUMPDEST SWAP6 POP DUP1 NOT DUP5 AND SWAP4 POP DUP1 DUP7 AND DUP5 OR SWAP3 POP POP POP SWAP4 SWAP3 POP POP POP JUMP JUMPDEST PUSH0 DUP2 SWAP1 POP SWAP2 SWAP1 POP JUMP JUMPDEST PUSH0 PUSH2 0x7A0 PUSH2 0x79B PUSH2 0x796 DUP5 PUSH2 0x386 JUMP JUMPDEST PUSH2 0x77D JUMP JUMPDEST PUSH2 0x386 JUMP JUMPDEST SWAP1 POP SWAP2 SWAP1 POP JUMP JUMPDEST PUSH0 DUP2 SWAP1 POP SWAP2 SWAP1 POP JUMP JUMPDEST PUSH2 0x7B9 DUP4 PUSH2 0x786 JUMP JUMPDEST PUSH2 0x7CD PUSH2 0x7C5 DUP3 PUSH2 0x7A7 JUMP JUMPDEST DUP5 DUP5 SLOAD PUSH2 0x72C JUMP JUMPDEST DUP3 SSTORE POP POP POP POP JUMP JUMPDEST PUSH0 SWAP1 JUMP JUMPDEST PUSH2 0x7E1 PUSH2 0x7D5 JUMP JUMPDEST PUSH2 0x7EC DUP2 DUP5 DUP5 PUSH2 0x7B0 JUMP JUMPDEST POP POP POP JUMP JUMPDEST JUMPDEST DUP2 DUP2 LT ISZERO PUSH2 0x80F JUMPI PUSH2 0x804 PUSH0 DUP3 PUSH2 0x7D9 JUMP JUMPDEST PUSH1 0x1 DUP2 ADD SWAP1 POP PUSH2 0x7F2 JUMP JUMPDEST POP POP JUMP JUMPDEST PUSH1 0x1F DUP3 GT ISZERO PUSH2 0x854 JUMPI PUSH2 0x825 DUP2 PUSH2 0x6FF JUMP JUMPDEST PUSH2 0x82E DUP5 PUSH2 0x711 JUMP JUMPDEST DUP2 ADD PUSH1 0x20 DUP6 LT ISZERO PUSH2 0x83D JUMPI DUP2 SWAP1 POP JUMPDEST PUSH2 0x851 PUSH2 0x849 DUP6 PUSH2 0x711 JUMP JUMPDEST DUP4 ADD DUP3 PUSH2 0x7F1 JUMP JUMPDEST POP POP JUMPDEST POP POP POP JUMP JUMPDEST PUSH0 DUP3 DUP3 SHR SWAP1 POP SWAP3 SWAP2 POP POP JUMP JUMPDEST PUSH0 PUSH2 0x874 PUSH0 NOT DUP5 PUSH1 0x8 MUL PUSH2 0x859 JUMP JUMPDEST NOT DUP1 DUP4 AND SWAP2 POP POP SWAP3 SWAP2 POP POP JUMP JUMPDEST PUSH0 PUSH2 0x88C DUP4 DUP4 PUSH2 0x865 JUMP JUMPDEST SWAP2 POP DUP3 PUSH1 0x2 MUL DUP3 OR SWAP1 POP SWAP3 SWAP2 POP POP JUMP JUMPDEST PUSH2 0x8A5 DUP3 PUSH2 0x41D JUMP JUMPDEST PUSH8 0xFFFFFFFFFFFFFFFF DUP2 GT ISZERO PUSH2 0x8BE JUMPI PUSH2 0x8BD PUSH2 0x4DD JUMP JUMPDEST JUMPDEST PUSH2 0x8C8 DUP3 SLOAD PUSH2 0x6CF JUMP JUMPDEST PUSH2 0x8D3 DUP3 DUP3 DUP6 PUSH2 0x813 JUMP JUMPDEST PUSH0 PUSH1 0x20 SWAP1 POP PUSH1 0x1F DUP4 GT PUSH1 0x1 DUP2 EQ PUSH2 0x904 JUMPI PUSH0 DUP5 ISZERO PUSH2 0x8F2 JUMPI DUP3 DUP8 ADD MLOAD SWAP1 POP JUMPDEST PUSH2 0x8FC DUP6 DUP3 PUSH2 0x881 JUMP JUMPDEST DUP7 SSTORE POP PUSH2 0x963 JUMP JUMPDEST PUSH1 0x1F NOT DUP5 AND PUSH2 0x912 DUP7 PUSH2 0x6FF JUMP JUMPDEST PUSH0 JUMPDEST DUP3 DUP2 LT ISZERO PUSH2 0x939 JUMPI DUP5 DUP10 ADD MLOAD DUP3 SSTORE PUSH1 0x1 DUP3 ADD SWAP2 POP PUSH1 0x20 DUP6 ADD SWAP5 POP PUSH1 0x20 DUP2 ADD SWAP1 POP PUSH2 0x914 JUMP JUMPDEST DUP7 DUP4 LT ISZERO PUSH2 0x956 JUMPI DUP5 DUP10 ADD MLOAD PUSH2 0x952 PUSH1 0x1F DUP10 AND DUP3 PUSH2 0x865 JUMP JUMPDEST DUP4 SSTORE POP JUMPDEST PUSH1 0x1 PUSH1 0x2 DUP9 MUL ADD DUP9 SSTORE POP POP POP JUMPDEST POP POP POP POP POP POP JUMP JUMPDEST PUSH0 DUP2 SWAP1 POP SWAP3 SWAP2 POP POP JUMP JUMPDEST PUSH0 PUSH2 0x97F DUP3 PUSH2 0x41D JUMP JUMPDEST PUSH2 0x989 DUP2 DUP6 PUSH2 0x96B JUMP JUMPDEST SWAP4 POP PUSH2 0x999 DUP2 DUP6 PUSH1 0x20 DUP7 ADD PUSH2 0x437 JUMP JUMPDEST DUP1 DUP5 ADD SWAP2 POP POP SWAP3 SWAP2 POP POP JUMP JUMPDEST PUSH0 PUSH2 0x9B0 DUP3 DUP5 PUSH2 0x975 JUMP JUMPDEST SWAP2 POP DUP2 SWAP1 POP SWAP3 SWAP2 POP POP JUMP INVALID LOG2 PUSH5 0x6970667358 0x22 SLT KECCAK256 0xA8 0xB2 0xB3 0xB9 0xB2 0x2F PUSH13 0xE8A552C8A982FC7F6C48381F8D SWAP12 DIV 0xE4 0xBE DIV 0xED CALLCODE 0x21 0x4F 0xCE 0xD DUP1 PUSH5 0x736F6C6343 STOP ADDMOD XOR STOP CALLER LOG2 PUSH5 0x6970667358 0x22 SLT KECCAK256 LOG4 ADD GASPRICE BLOBBASEFEE 0x2A LOG1 STOP 0xB4 JUMPDEST MOD 0xB3 BALANCE 0xE3 SWAP5 POP 0xBE 0xF8 PUSH13 0x55726EF705E9BC4DEC7DE23AA5 PUSH25 0x64736F6C634300081800330000000000000000000000000000 "
		},
		"gasEstimates": {
			"creation": {
				"codeDepositCost": "979400",
				"executionCost": "1019",
				"totalCost": "980419"
			},
			"external": {
				"createSimpleStorageContract()": "infinite",
				"listOfSimpleStorageContracts(uint256)": "infinite",
				"sfGet(uint256)": "infinite",
				"sfStore(uint256,uint256)": "infinite"
			}
		},
		"methodIdentifiers": {
			"createSimpleStorageContract()": "1dda6541",
			"listOfSimpleStorageContracts(uint256)": "f39f3035",
			"sfGet(uint256)": "c5f19c20",
			"sfStore(uint256,uint256)": "1563700f"
		}
	},
	"abi": [
		{
			"inputs": [],
			"name": "createSimpleStorageContract",
			"outputs": [],
			"stateMutability": "nonpayable",
			"type": "function"
		},
		{
			"inputs": [
				{
					"internalType": "uint256",
					"name": "",
					"type": "uint256"
				}
			],
			"name": "listOfSimpleStorageContracts",
			"outputs": [
				{
					"internalType": "contract SimpleStorage",
					"name": "",
					"type": "address"
				}
			],
			"stateMutability": "view",
			"type": "function"
		},
		{
			"inputs": [
				{
					"internalType": "uint256",
					"name": "_simpleStorageIndex",
					"type": "uint256"
				}
			],
			"name": "sfGet",
			"outputs": [
				{
					"internalType": "uint256",
					"name": "",
					"type": "uint256"
				}
			],
			"stateMutability": "view",
			"type": "function"
		},
		{
			"inputs": [
				{
					"internalType": "uint256",
					"name": "_simpleStorageIndex",
					"type": "uint256"
				},
				{
					"internalType": "uint256",
					"name": "_newSimpleStorageNumber",
					"type": "uint256"
				}
			],
			"name": "sfStore",
			"outputs": [],
			"stateMutability": "nonpayable",
			"type": "function"
		}
	]
}